:020000040800F2
:10000000680700200D02000815020008170200080A
:10001000190200081B0200081D0200080000000071
:100020000000000000000000000000001F020008A7
:100030002102000800000000230200080503000858
:1000400027020008270200082702000827020008EC
:1000500027020008270200082702000827020008DC
:1000600027020008270200082702000827020008CC
:1000700027020008270200082702000827020008BC
:1000800027020008270200082702000827020008AC
:10009000270200082702000827020008270200089C
:1000A000270200082702000827020008270200088C
:1000B000270200082702000827020008270200087C
:1000C000270200082702000827020008270200086C
:1000D000270200082702000827020008270200085C
:1000E000270200082702000827020008270200084C
:1000F000270200082702000827020008270200083C
:10010000270200082702000827020008270200082B
:10011000270200082702000827020008270200081B
:10012000270200082702000827020008270200080B
:1001300027020008270200082702000827020008FB
:1001400027020008270200082702000827020008EB
:1001500027020008270200082702000827020008DB
:1001600027020008270200082702000827020008CB
:1001700027020008270200082702000800000000EC
:10018000270200082702000800F002F800F02EF80D
:100190000AA090E8000C82448344AAF10107DA45E2
:1001A00001D100F023F8AFF2090EBAE80F0013F006
:1001B000010F18BFFB1A43F001031847200F00007E
:1001C000300F00000023002400250026103A28BF2D
:1001D00078C1FBD8520728BF30C148BF0B607047B9
:1001E0001FB500F06BFF1FBD10B510BD00F050F83B
:1001F0001146FFF7F5FF00F0EFFA00F06EF803B4D8
:10020000FFF7F2FF03BC00F075F8000009488047D3
:1002100009480047FEE7FEE7FEE7FEE7FEE7FEE7E8
:10022000FEE7FEE7FEE7FEE704480549054A064B00
:1002300070470000150300088901000868010020CC
:1002400068070020680300206803002010B5431CE5
:1002500002E010F8011B71B18107FAD14FF00132B1
:1002600002C88C1A8C4314EAC211F9D0C01A0A06CB
:1002700003D0C01E10BDC01A10BD0A0401D0801EDC
:1002800010BD0902FCD0401E10BD7047704770477A
:10029000754600F02BF8AE4605006946534620F03F
:1002A0000700854618B020B5FFF7BEFFBDE8204027
:1002B0004FF000064FF000074FF000084FF0000B22
:1002C000AC46ACE8C009ACE8C009ACE8C009ACE891
:1002D000C00921F007018D46704710B50446AFF301
:1002E00000802046BDE81040FFF789BF00487047F6
:1002F0000000002001491820ABBEFEE726000200E6
:100300007047000040F26400C2F200000168013151
:10031000016070474EF68850CEF2000001684FF63B
:10032000FF7341F47001016041F20000C4F2020069
:100330000168CEF6F62341F00101016000218160E1
:1003400002681A4002604FF48052C260026822F4D0
:10035000802202608161704700EBE03181EAE03089
:1003600080B2704790B140F26401C2F200010A68A5
:10037000801803D300BF0A689042FBD30A689042FA
:1003800098BF704700BF0A689042FBD870470000D2
:1003900010B5D0F800C04FEA410E032303FA0EF364
:1003A0002CEA030C022303FA0EF343EA0C03036066
:1003B0004FEA810E6FF01F0C2023072988BF0CEB3A
:1003C000810E88BF242350F803C00F2404FA0EF4D2
:1003D00002F00F022CEA040402FA0EF22243C25089
:1003E00000F008F810BD0000012202FA01F181615D
:1003F000704700001031012202FA01F1816170475B
:1004000010B5D0F800C04FEA410E032404FA0EF4F0
:1004100002F003022CEA040C02FA0EF242EA0C0289
:100420000260D0F804C001228A4003F001032CEAE4
:10043000020203FA01F111434160029A816802F05D
:100440000302A14302FA0EF211438160039AC168CC
:1004500002F00302A14302FA0EF21143C16010BD83
:100460000069C84000F001007047000080B512B17B
:10047000FFF7BAFF80BDFFF7BDFF80BD87B047F231
:100480009050C1F6FF7001680A0C89B2069205917E
:100490004168CAB221F0FF0104920391806840F2E2
:1004A000047202900398000A8DF807000398000C6C
:1004B0008DF806000398000E8DF8050002988DF85F
:1004C00004000298000A8DF803000298000C8DF8D1
:1004D0000200029941F20000090E8DF8011043F26A
:1004E000FF01C4F20200C0F20501C1644FF4807143
:1004F00001654CF20041C1F2400181650121C165F5
:10050000016642F20001C4F202010A60016841F48E
:100510008071016040F60221C0F21011C16040F606
:100520000041C0F230310161016841F0A061016019
:1005300001688901FCD500BF01680901FCD50321D0
:10054000816040F26000C2F200005021016007B0FB
:1005500070470000F0B583B047F20400C4F2000019
:10056000016840F2004541F4007101604FF604401B
:10057000C4F60005CFF6FF7029580131FCD000BF4A
:1005800068680130FCD000BFD5F804040130FBD00E
:10059000D5F804080130FBD041F20004C4F6000491
:1005A00060680130FCD041F20440C4F6000000BF96
:1005B00001680131FCD000BFD0F800140131FBD03C
:1005C0000127002628460A210022002300960197D1
:1005D000FFF716FF28460B21002200230096019703
:1005E000FFF70EFF20460621012200230096019608
:1005F000FFF706FF20460521012200230096019601
:10060000FFF7FEFE204604210122002300960196FA
:10061000FFF7F6FE204603210122002300960196F3
:10062000FFF7EEFE204602210122002300960196EC
:10063000FFF7E6FE03B0F0BD2DE9F0410C46DDF812
:1006400018809DF81C509DF820600746D1B2DAB2A0
:100650002046FFF79DFE404629463246FFF798FEAA
:100660004BF27260C0F20200F8600020B86078605F
:100670000D203860BDE8F08140F2600072B6C2F231
:1006800000000068C11700EB5170C0104FF47A7180
:1006900048434EF21001CEF200014860032008608A
:1006A00062B67047B0B5154642684FF0010C1C4663
:1006B0000CFA01F39A4342606A680CFA04F39A4315
:1006C0006A6082684B004FF0030E0EFA03F31A4380
:1006D0008260AA6863000EFA03F31A43AA6001F16C
:1006E00010020CFA02F2826104F110020CFA02F21A
:1006F000AA61012200F0B2FB28462146012200F047
:10070000ADFBB0BD2DE9F04F83B00C468146DDF85E
:100710004CA09DF840709DF84450DDF830B09DF835
:1007200034609DF83880D1B2DAB22046FFF730FE4F
:10073000584631464246FFF72BFE0F9839462A4667
:10074000FFF726FE129C514620460122FFF78EFE3F
:100750000027204651460122002300970197FFF70A
:100760004FFE4FF4B850C9F804004FF45770C9F861
:10077000000003B000F000B830BCBDE8C08F00003E
:100780000346002848BF434210B546F2676E40F268
:10079000680C0022C6F2666EC2F2000C53FB0EF12A
:1007A0008C1004EBD17101EB8104A3EB44043034D1
:1007B0000CF802400132092B0B46EFDCB0F1FF3F91
:1007C00003DC2D200CF80200013200200CF802009E
:1007D00000F026FB10BD000041F20005C4F6000544
:1007E00000F034F92846022101224FF0020A4FF0AE
:1007F000010BFFF73BFE00F0FBFA09200021092264
:10080000082300F047F9042001210022042600F00B
:1008100067FA284602210022FFF728FE6AA000F0AE
:10082000C5FA47F29057C1F6FF77386800F0D6FA5C
:1008300041F2D604C0F60004204600F0B7FA78680A
:1008400000F0CCFA204600F0B1FAB86800F0C6FA21
:1008500000F09EFA00F0EAF9A5F540600A21FFF7E2
:10086000FFFD814628B1284602210122FFF7FEFD47
:10087000032640F23408284631460122C4F200081B
:10088000FFF7F4FD4FF090400F210122FFF780FDAC
:1008900041F25800C4F20200016841F00101016018
:1008A0000120FFF75FFD512048F80C0C682048F844
:1008B00014BC48F81C0C42F2107048F820AC48F800
:1008C000080C4FF47A70C8F800004FF08040812186
:1008D000016040F2DC5040F26407C8F80000C8F83C
:1008E0000000C2F200073868092864D841F2D9062E
:1008F00000250A2443F6982A44F6206BC0F6000629
:1009000038E000BF00F06AFA304600F04FFA00F01D
:1009100069F900F025FA304600F048FA00F068F96D
:1009200000F01EFA304600F041FA00F067F900F0DE
:1009300017FA304600F03AFA00F066F900F010FAC3
:10094000304600F033FA00F065F900F009FA30465D
:1009500000F02CFA00F064F900F002FA304600F0E2
:1009600025FA284600F03AFA00F012FA3868053401
:10097000A04220D241F2883148F21F52411AC5F2FA
:10098000EB12A1FB021288BF5509504588BF6425B0
:10099000584588BF0025B9F1000F08BF4D4605EB4B
:1009A000850000F2DC50C8F8000000BF3868A042A3
:1009B000A8D200BFFAE70EA000F0F8F917A000F0E7
:1009C000F5F900BF00BFFDE76F72626974616C20CA
:1009D000706C6174666F726D2072322E206D63755B
:1009E0002073657269616C2062797465733A2000C6
:1009F00063616E6E6F74206B656570207570212069
:100A0000726564756365206F7574707574206461B8
:100A1000746120726174652E0D0A00006C696D6945
:100A200074656420627920756172742062617564F6
:100A300020726174652E0D0A000000000128B8BF05
:100A4000704700BF013800BFFCD1704780B5FFF789
:100A500015FDFFF77FFDFFF70FFE80BD80B54FF45A
:100A60007F6303EA001001F00F0140EA810002F009
:100A7000010140EA4101102000F0DEF880BD0000D5
:100A800080B5C9B2C0B241EA0011112000F0D4F81B
:100A900080BD00002DE9F04188B00E4640F20041D3
:100AA000C4F60001074601F5A050984615460622F7
:100AB0000323069043F600404FF00F0C0424CDE9C9
:100AC0000221CDE90432C4F2000005220623CDE95B
:100AD0000014CDF81CC0FFF715FE1220012100F014
:100AE000ABF84FF4FA70FFF7A9FF38463146002201
:100AF000FFF7B4FF28464146FFF7C2FF08B0BDE844
:100B0000F081000070B541F60004C4F6000405460B
:100B100020460F210022FFF7A9FC0A20FFF78EFFD5
:100B200045F0800143F60045C4F20005284600F078
:100B300095FA284600F08EFA2846FF2100F08EFA3A
:100B4000284600F087FA0646284600F079FA0A207F
:100B5000FFF774FF20460F210122FFF787FC0A20D0
:100B6000FFF76CFF304670BDF0B581B041F6000470
:100B7000C4F60004054620460F210022FFF776FC4C
:100B80000A20FFF75BFF45F0800143F60045C4F201
:100B90000005284600F062FA284600F05BFA284675
:100BA000FF2100F05BFA284600F054FA064628467A
:100BB000FF2100F053FA284600F04CFA0746284679
:100BC00000F03EFA0A20FFF739FF20460F210122EC
:100BD000FFF74CFC0A20FFF731FF46EA072000B27E
:100BE00001B0F0BD80B52820FFF7BEFF80BD00003A
:100BF00080B52A20FFF7B8FF80BD000080B52C200B
:100C0000FFF7B2FF80BD000080B52220FFF7ACFFE8
:100C100080BD000080B52420FFF7A6FF80BD000046
:100C200080B52620FFF7A0FF80BD000080B50F2013
:100C3000FFF768FF00B280BDF0B581B041F6000457
:100C4000C4F600040D46064620460F210022FFF799
:100C50000DFC0A20FFF7F2FE43F60047C4F200073E
:100C6000384631462A4600F009FA384600F0F2F9D3
:100C7000384600F0EFF9384600F0ECF9384600F05D
:100C8000DFF90A20FFF7DAFE20460F210122FFF7E5
:100C9000EDFB0A20FFF7D2FE01B0F0BD80B584B0B5
:100CA00084466FF0030000EB8C0040EA011040EA3C
:100CB0008210BCF1000F18BF00F1010C09200D21BA
:100CC000CDE9001040F20040C4F6000008210246C1
:100CD0000923CDF808C000F06DF904B080BD000014
:100CE0002DE9F04383B040F20047C4F60007904678
:100CF00089460646384608213A460923FFF7D2FCC2
:100D000080200A250D240290384608213A460923FE
:100D10000094019500F04EF93220FFF78FFE00207D
:100D2000CDE90150384608213A460923009400F0E5
:100D300041F90B200125CDE90040384608213A460B
:100D40000923029500F036F93220FFF777FE30468E
:100D500049464246FFF7A2FF03B0BDE8F08300001A
:100D600010B50446B0F1FF3F06DC48F20000C4F2C3
:100D700000002D2100F098F92046FFF7EDFAFFF76B
:100D8000FFFC40F26800C2F2000000F00FF810BD56
:100D900010B548F20004C4F2000420460D2100F012
:100DA00083F920460A2100F07FF910BD70B5044692
:100DB0000078002808BF70BD48F200050026C4F284
:100DC000000500BFA15D284600F06EF920460136FF
:100DD000FFF73CFA8642F5D370BD000080B5FFF7FF
:100DE000CFFC40F26800C2F20000FFF7DFFF80BDD9
:100DF00080B584B040F600010020C4F60001CDE9C2
:100E0000001048F200004FF0080CC4F2000001226C
:100E10000823CDF808C0FFF70FFC04B080BD000028
:100E200010B540F26804C2F200042046FFF70EFA43
:100E300001380128B8BF10BD002100BF225C635CEF
:100E400062542354013101388142F7DB10BD0000A8
:100E500080B51E20FFF7F2FD80BD000042B14900C1
:100E60000322036802FA01F123EA010101607047DD
:100E70000268490003238B409A43012303FA01F1DE
:100E80001143016070470000F0B581B015460022A3
:100E90001C460E460746FFF7E1FFFFF7D9FF28463D
:100EA00021460122FFF7DAFFFFF7D2FF384631462D
:100EB0000122FFF7D3FFFFF7CBFF28462146FFF7BC
:100EC000CFFA0446FFF7C4FF204601B0F0BD000092
:100ED0002DE9F04381B0DDF82080994615460E4695
:100EE00007460024384631460022FFF7B7FFFFF7D8
:100EF000AFFF08FA04F000F0800228464946FFF7E9
:100F0000ADFFFFF7A5FF384631460122FFF7A6FFE8
:100F1000FFF79EFFFFF79CFF0134082CE2D101B0E0
:100F2000BDE8F083F0B581B0174601221E460C469D
:100F30000546FFF793FF384631460122FFF78EFF43
:100F4000FFF786FFFFF784FF384631460022FFF7A0
:100F500085FFFFF77DFFFFF77BFF28462146002234
:100F6000FFF77CFFFFF774FF01B0F0BDF0B581B073
:100F7000154600221C460E460746FFF76FFF28461F
:100F800021460022FFF76AFFFFF762FFFFF760FFCD
:100F9000384631460122FFF761FFFFF759FFFFF79F
:100FA00057FF284621460122FFF758FFFFF750FF61
:100FB00001B0F0BD2DE9F04782B0DDF83090DDE9F9
:100FC0000A8A1C4615460E460746FFF7ABFF4FEA56
:100FD000480C384631462A462346CDF800C0FFF774
:100FE00077FF384631462A462346FFF74DFF8046B5
:100FF000384631462A462346CDF800A0FFF768FF61
:10100000384631462A462346FFF73EFF804438469D
:1010100031462A462346CDF80090FFF759FF38465F
:1010200031462A462346FFF72FFF80443846314693
:101030002A462346FFF79AFF404602B0BDE8F087F4
:101040008168090658BF704700BF81680906FBD454
:1010500070470000C06880B2704700008268920745
:1010600001D400BFFAE701738168890748BF704760
:1010700000BF81688907FBD57047000083689B0724
:1010800001D400BFFAE701738168890701D400BF6A
:10109000FAE702738168890748BF704700BF81681B
:1010A0008907FBD570470000C269120604D400BF4F
:1010B00000BFC2691206FBD501857047F1EE100A28
:1010C0004FF6FF71C0F2C03120EA010040F04070DD
:1010D000E1EE100A70472C20002C0000EC100008F4
:0C10E0000000002068070000C4010008A8
:040000050800018965
:00000001FF
